:0400000007EF00F016
:100008005282B5ED02F0CCEF08F0AEEC0AF0466A89
:10001800426A400ED36E0E0EC16E9494F90ECB6EEA
:100028007D0EBE6ECA6A0C0EBD6ECC6ACA84929CE6
:10003800899C3D6A010EC26E880EC06E94909482AF
:100048008B90900ECD6E966A070E8D6E956A37C0AE
:100058008CFF92928992929489949296899692981A
:10006800949C948E240EAC6E900EAB6E080EB86EF7
:10007800B06A190EAF6E9482929A898A010ED56E73
:100088000B0ED76EDC0ED66EF294F28AD58E800EE9
:10009800CD6EF00E936E8A6AF19E210E00016F6F8D
:1000A800760EE82EFED76F2FFCD70000F290F2866E
:1000B800F28CF28E9D8A89861DEC07F0D0B21ED193
:1000C800436AD08233EC0CF061C02BF062C02CF094
:1000D8002AEC0CF061C029F062C02AF002EC0CF0A6
:1000E8006EEC0CF0740E0001656F7F0E666FF9EC14
:1000F80009F0C00EC9EC0BF05A0E0001656F7F0EB7
:10010800666FF9EC09F0030E0001706F8A0E6F6FCD
:10011800550EE82EFED76F2FFCD7702FFAD700D0D8
:100128002B502C10D8B41AD12C5003E13C0E2B5C68
:10013800D8B014D129502A10D8B410D1436A02EC8F
:100148000CF0F50E0001656F7E0E666FF9EC09F094
:10015800C00EC9EC0BF09B0E0001656F7F0E666F39
:10016800F9EC09F0020E686F2B50BDEC05F0070E94
:100178000001706F580E6F6F590EE82EFED76F2F63
:10018800FCD7702FFAD700D002EC0CF0BF0E00019C
:10019800656F7F0E666FF9EC09F0C00EC9EC0BF0C5
:1001A800B30E0001656F7F0E666FF9EC09F0446AC3
:1001B8004404D8B404D0020E4418D8A4F9D744048F
:1001C800D8A47AD02BC039F02CC03AF029C033F02B
:1001D8002AC034F039C060F03AC061F0000E000166
:1001E800636F0A0E626FA7EC09F060C035F061C05A
:1001F80036F0F60E6F6FFF0E706F6F513502F3CF4A
:1002080071F0F4CF72F03602F35072277051350254
:10021800F350722739507125376E3A507221386E73
:1002280037C08CFF35503610D8A402D0010E1AD032
:1002380035043610D8A402D0050E14D0020E351895
:100248003610D8A402D0040E0DD0030E351836107F
:10025800D8A402D0060E06D0040E35183610D8A43D
:1002680003D0020E8D6E05D0050E35183610D8B4A1
:100278008D6A02EC0CF0F80E0001656F7F0E666F58
:10028800F9EC09F0C00EC9EC0BF0ED0E0001656F3A
:100298007F0E666FF9EC09F0020E0001706FE70E31
:1002A8006F6F000EE82EFED76F2FFCD7702FFAD78E
:1002B800000002EC0CF062D0AEEC0AF0000E000177
:1002C800606F000E65EC0BF0000E0001606F010E10
:1002D80065EC0BF002EC0CF0F80E0001656F7F0E78
:1002E800666FF9EC09F0C00EC9EC0BF0E20E0001E4
:1002F800656F7F0E666FF9EC09F030D002EC0CF0F8
:100308006EEC0CF0810E0001656F7F0E666FF9ECE4
:1003180009F0C00EC9EC0BF08E0E0001656F7F0E60
:10032800666FF9EC09F0020E0001706F450E6F6FF1
:10033800A90EE82EFED76F2FFCD7702FFAD700D062
:10034800AEEC0AF0000E0001606F000E65EC0BF0D9
:10035800000E0001606F010E65EC0BF0020E00014B
:10036800706F450E6F6FA90EE82EFED76F2FFCD762
:10037800702FFAD700D0899634EC06F06EEC0CF0AA
:10038800A70E0001656F7F0E666FF9EC09F0020E8B
:10039800686F3950335CBDEC05F0C00EC9EC0BF04A
:1003A800D70E0001656F7F0E666FF9EC09F0020E3B
:1003B800686F3350BDEC05F0010E456ECAD0210EB2
:1003C80000016F6F760EE82EFED76F2FFCD7000066
:1003D80000EC08F0416E335039182EE134503A18C9
:1003E800D8A42AD08984020E0001706F450E6F6F61
:1003F800A90EE82EFED76F2FFCD7702FFAD700D0A2
:10040800899402EC0CF0E50E0001656F7E0E666FB4
:10041800F9EC09F0C00EC9EC0BF0140E0001656F81
:100428007F0E666FF9EC09F0456A446A2A0E441893
:10043800D8A4FCD7AEEC0AF0040E41640CD0090E27
:10044800416009D03350391804E134503A18D8B40F
:1004580002D0436A516A5150D8A47BD0030E41643C
:1004680003D0090E416475D0010E516E374A382AFF
:10047800394A3A2A39C062F03AC063F033C064F0AE
:1004880034C065F0D6EC0BF00A0E37183810D8A433
:1004980025D08984620E00016F6F650EE82EFED7A5
:1004A8006F2FFCD700D08994000E386E000E376E7F
:1004B800354A362A060E35183610D8A40FD0898446
:1004C800620E00016F6F650EE82EFED76F2FFCD706
:1004D80000D08994000E366E000E356E35503610F9
:1004E800D8A402D0020E1AD035043610D8A402D0EF
:1004F800030E14D0020E35183610D8A402D0010EFF
:100508000DD0030E35183610D8A402D0050E06D02B
:10051800040E35183610D8A403D0040E8D6E05D0FD
:10052800050E35183610D8B48D6A8B0EC9EC0BF051
:10053800020E0001686F3950335CBDEC05F037C01E
:100548008CFFA30E00016F6F550EE82EFED76F2F9C
:10055800FCD74504D8B433D7010E8D6E37C08CFF55
:100568000BD70600D9CF21F0DACF22F0F3CF23F052
:10057800F4CF24F0F6CF25F0F7CF26F0F8CF27F008
:10058800F5CF28F09EAAD1D0ABA202D0AB98AB8809
:10059800436AAECF42F05A0E4218D8B404D07A0E4D
:1005A8004218D8A404D0010E3C6E3B6A45D0580EC0
:1005B8004218D8B404D0780E4218D8A404D0010E3A
:1005C8003C6E140E2FD0430E4218D8B404D0630EDC
:1005D8004218D8A404D0010E3C6E280E23D0560E23
:1005E8004218D8B404D0760E4218D8A404D0010E0C
:1005F8003C6E3C0E17D0420E4218D8B404D0620E9E
:100608004218D8A404D0010E3C6E500E0BD04E0EEA
:100618004218D8B404D06E0E4218D8A405D0010EE2
:100628003C6E640E3B6E08D04D0E4218D8B403D011
:100638006D0E4218D8B43C6A3D50D8A407D03C048B
:10064800D8A40AD03B503BEC08F006D0000E026E4E
:10065800000E016E51EC09F0500E4218D8B404D0C7
:10066800700E4218D8A41ED0030E8D6E20EC0CF02C
:1006780076EC0CF0670E066E7F0E076E45EC0AF0FE
:10068800C00EECEC0BF03F0E066E7F0E076E45ECCD
:100698000AF0000E026E000E016E51EC09F03CECFF
:1006A8000CF0FFD74504D8A42CD0720E4218D8B449
:1006B80004D0520E4218D8A424D0000E386E000E72
:1006C800376E000E3A6E000E396E000E366E000E52
:1006D800356E000E046E000E036E33C005F034C094
:1006E80006F0E1EC0BF0020E8D6E8B0EECEC0BF0CD
:1006F800020E096E3950335CAAEC06F037C08CFF45
:1007080014D0460E4218D8B404D0660E4218D8A4A5
:1007180003D082EC0CF009D0470E4218D8B403D0AD
:10072800670E4218D8B416EC0CF0F2A48ED0432A07
:100738000B0ED76EDC0ED66EF29489B202D0898287
:1007480001D08992000EAEEC0BF001C031F002C06E
:1007580032F031C001F032C002F0036A046A640E5C
:10076800056E000E066E000E076E000E086E26EC73
:1007780009F001C00DF002C00EF003C00FF004C074
:1007880010F0FF0E116E030E126E000E136E000EA7
:10079800146EBFEC07F00D503E6EC10E0D6E7E0E4E
:1007A8000E6E31C00FF032C010F030EC05F03D0491
:1007B800D8A407D0000E026E000E016E51EC09F0AD
:1007C8000FD03C04D8A406D03B503BEC08F03BC00B
:1007D8003EF006D031C001F032C002F051EC09F011
:1007E800970E0D6E7E0E0E6E3EC00FF0106A30EC46
:1007F80005F04004D8A402D03F2A01D03F6A010E78
:100808003F6401D0406A4150D8A407D0AC0E0D6EA9
:100818007E0E0E6E30EC05F009D0770E0D6E7E0E52
:100828000E6E41C00FF0106A30EC05F00A0E431846
:10083800D8B48996130E436404D00300436AF29037
:10084800CD8031C02FF032C030F0F2A0F3D0F00EDE
:100858008118D8B4E7D0436AFE0E8A6E81B805D0F5
:10086800010E446EF9EC08F0DBD081BA02D0020E1A
:10087800F8D781BC02D0030EF4D781BE03D02A0E6C
:10088800446ECED0FD0E8A6E81B802D0040EE9D730
:1008980081BA02D0050EE5D781BC02D0060EE1D799
:1008A80081BE1ED0030E8D6E20EC0CF076EC0CF0A1
:1008B800670E066E7F0E076E45EC0AF0C00EECEC74
:1008C8000BF03F0E066E7F0E076E45EC0AF0000E29
:1008D800026E000E016E51EC09F03CEC0CF0FFD7F3
:1008E800FB0E8A6E81B802D0070EBBD781BA02D040
:1008F800080EB7D781BC02D0090EB3D781BE03D08A
:1009080039EC0BF08DD0F70E8A6E81B827D0000E27
:10091800386E000E376E000E3A6E000E396E000EFD
:10092800366E000E356E000E046E000E036E33C078
:1009380005F034C006F0E1EC0BF0020E8D6E4504B4
:10094800D8A46ED08B0EECEC0BF0020E096E395069
:10095800335CAAEC06F037C08CFF62D081BA02D0B3
:10096800446A80D781BC54D039EC0BF033C039F0DD
:1009780034C03AF033C001F034C002F0000E046E07
:100988000A0E036ED0EC09F001C035F002C036F053
:10099800F60E1D6EFF0E1E6E1D503502F3CF1FF0B2
:1009A800F4CF20F03602F35020261E503502F350C3
:1009B800202633501F24376E34502020386E35508F
:1009C8003610D8A402D0010E1AD035043610D8A497
:1009D80002D0050E14D0020E35183610D8A402D055
:1009E800040E0DD0030E35183610D8A402D0060E0A
:1009F80006D0040E35183610D8A403D0020E8D6E1A
:100A0800AAD7050E35183610D8A4A5D78D6AA3D74E
:100A180081BE06D089B602D0898601D08996CD805C
:100A2800F00E8A6E620E1D6E660EE82EFED71D2E23
:100A3800FCD7F29028C0F5FF27C0F8FF26C0F7FFC3
:100A480025C0F6FF24C0F4FF23C0F3FF22C0DAFF5D
:100A580021C0D9FF529211000F0E126E7DD0250EC3
:100A68001718D8B404D017505BEC0CF075D0136A83
:100A780004D017505BEC0CF06FD00DC0F6FF0EC021
:100A8800F7FF0D4A0E2A0800F5CF17F01750000A95
:100A9800D8B41200640AD8B403D00D0AD8A4E9D790
:100AA8001250D96EDA6ADECF15F0DDCF16F0020EDD
:100AB800122616AE06D0030E1312156C161ED8B0E9
:100AC800162A010E176E1750020D6D0EF324F66EDE
:100AD8007E0EF420F76E0900F550155C0900F550FC
:100AE8001658D8A005D0172A050E1718D8A4EBD782
:100AF80013C011F0030E1116D8B403D02D0E5BEC01
:100B08000CF017C014F024D01450020D6D0EF3240D
:100B1800F66E7E0EF420F76E0900F5CF03F00A009A
:100B2800F5CF04F015C001F016C002F0D0EC09F0C2
:100B380001C008F002C009F0000E0B6E0A0E0A6E22
:100B48008DEC0AF00850300F176E17505BEC0CF064
:100B580014061428D8A4D8D70DC0F6FF0EC0F7FF86
:100B68000D4A0E2A0800F5CF17F01750D8B4120016
:100B780076D76C6F898868D00A0E606F6C5150EC1C
:100B88000BF06B6F6B51300F1FEC0AF04DEC0CF053
:100B9800040E9DEC08F012000A0E646F640E606F7C
:100BA8006C5150EC0BF0CCEC0AF06A6F0A0E606FD7
:100BB8006C5150EC0BF06B6F6A51300F1FEC0AF060
:100BC8004DEC0CF0040E9DEC08F000016B51300F59
:100BD8001FEC0AF04DEC0CF0040E9DEC08F012002E
:100BE800640E646F6C51CCEC0AF0696F0A0E646F86
:100BF800640E606F6C5150EC0BF0CCEC0AF06A6F2D
:100C08000A0E606F6C5150EC0BF06B6F6951300F2E
:100C18001FEC0AF04DEC0CF0040E9DEC08F00001FE
:100C28006A51300F1FEC0AF04DEC0CF0040E9DECED
:100C380008F000016B51300F1FEC0AF04DEC0CF07E
:100C4800040E9DEC08F0120000016851010AD8B4A6
:100C580093D7030AD8B4A0D7010AD8A41200C0D7E2
:100C6800730E0001656F010E666F6DEC08F0476A40
:100C780002EC0CF0D40E0001656F7E0E666FF9EC85
:100C880009F0C70EC9EC0BF0010EBCEC0BF0010E1D
:100C9800BCEC0BF0C70EC9EC0BF06AEC0CF0010EC3
:100CA800466E2A0E4418D8A4FCD7345008E13C0EEE
:100CB800335CD8B004D033503410D8A441D0466A3D
:100CC800446A000E346E000E336E02EC0CF06EECCB
:100CD8000CF04D0E0001656F7F0E666FF9EC09F0A0
:100CE800020E00016C6F450E6B6FA90EE82EFED741
:100CF8006B2FFCD76C2FFAD700D002EC0CF0310E1A
:100D08000001656F7F0E666FF9EC09F0C00EC9EC43
:100D18000BF0230E0001656F7F0E666FF9EC09F08A
:100D2800030E00016C6F8A0E6B6F550EE82EFED70E
:100D38006B2FFCD76C2FFAD700D002EC0CF090D7B1
:100D4800466A300E476E02EC0CF012000D6E898870
:100D580065D00A0E016E0D5079EC0BF00C6E0C503C
:100D6800300F6AEC0AF054EC0CF0040E7CEC09F03D
:100D780012000A0E056E640E016E0D5079EC0BF030
:100D8800E9EC0AF00B6E0A0E016E0D5079EC0BF0CF
:100D98000C6E0B50300F6AEC0AF054EC0CF0040E99
:100DA8007CEC09F00C50300F6AEC0AF054EC0CF0B3
:100DB800040E7CEC09F01200640E056E0D50E9EC8F
:100DC8000AF00A6E0A0E056E640E016E0D5079EC7B
:100DD8000BF0E9EC0AF00B6E0A0E016E0D5079EC7F
:100DE8000BF00C6E0A50300F6AEC0AF054EC0CF061
:100DF800040E7CEC09F00B50300F6AEC0AF054EC4E
:100E08000CF0040E7CEC09F00C50300F6AEC0AF080
:100E180054EC0CF0040E7CEC09F012000950010AA5
:100E2800D8B497D7030AD8B4A4D7010AD8A4120013
:100E3800C3D7040EA0EC0BF071EC07F06EEC0CF0CD
:100E4800490E0001656F000E666F6DEC08F0000E2C
:100E5800BCEC0BF0000EBCEC0BF0050E0001656F4E
:100E68007F0E666FF9EC09F0C00EC9EC0BF0000EAE
:100E7800BCEC0BF0000EBCEC0BF0CB0E0001656F68
:100E88007F0E666FF9EC09F0050E00016C6F0F0E0E
:100E98006B6FF10EE82EFED76B2FFCD76C2FFAD7AD
:100EA800000E00016E6F000E6D6F0CEC0CF0210E41
:100EB80000016B6F760EE82EFED76B2FFCD7000073
:100EC80000016D4B6E2B6EBFF0D76E5105E1120E0F
:100ED8006D5DD8B01200E9D712008998040E481841
:100EE800D8A404D08C500F0B300901D03F0E8C6E63
:100EF8004DEC0CF0010E9DEC08F0040E4818D8A437
:100F080004D08C500F0B300901D03F0E8C6E4DEC85
:100F18000CF0030E9DEC08F0040E4818D8A404D079
:100F28008C500F0B300901D03F0E8C6E4DEC0CF03D
:100F3800040E9DEC08F0040E4818D8A411D08C506B
:100F48000F0B20098C6E4DEC0CF0040E9DEC08F094
:100F58002F0E1FEC0AF04DEC0CF0040E9DEC08F07F
:100F680002EC0CF00F0E1FEC0AF04DEC0CF0040E26
:100F78009DEC08F01200000E156E000E166E000EA5
:100F8800176E000E186E1150121013101410D8B4EA
:100F98002AD0010E196E06D0D890113612361336A3
:100FA8001436192A14AEF8D7D890153616361736CF
:100FB800183611500D5C12500E5813500F5814501B
:100FC8001058D8A009D011500D5E12500E5A135067
:100FD8000F5A1450105A1580D89014321332123206
:100FE8001132192EE1D715C00DF016C00EF017C03A
:100FF8000FF018C010F01200040EBA6E000ECF6E7B
:10100800000ECE6E9E90A190828000D08290010E3C
:10101800406E82B203D04004D8B4FBD74050D8A465
:1010280002D0000E1200CD80A1B002D09EA0FCD745
:10103800CD909EA003D00001676917D0E40EBB5C79
:101048000D0EBC58D8A004D00D0EBC6EE40EBB6EBD
:10105800BBCF60F0BCCF61F0000E0001636F0E0ED5
:10106800626FA7EC09F06051676F675112001C6E40
:10107800640E1C6402D0640E1C6E1C50016E026A61
:10108800036A046AFF0E056E030E066E000E076EF5
:10109800000E086E26EC09F001C00DF002C00EF03B
:1010A80003C00FF004C010F0640E116E000E126E33
:1010B800000E136E000E146EBFEC07F00DC01AF090
:1010C8000EC01BF01AC001F01BC002F051EC09F071
:1010D800120089986651080DF35040091FEC0AF078
:1010E8004DEC0CF0040E9DEC08F08988020E9DEC86
:1010F80008F0000E0001686F000E676F65516725E4
:10110800D96EDA6ADF501FEC0AF04DEC0CF0040ED1
:101118009DEC08F00001674B682B68BFEFD768515A
:1011280004E1080E675DD8A0E9D7800EC9EC0BF082
:1011380012000001616F1DD0050E0001606FDD0E09
:10114800E82EFED7602FFCD700D01200530EE82EF1
:10115800FED70000350EE82EFED700001200080E5C
:10116800E82EFED700001200030EE82EFED700007E
:10117800120000016151010AD8B4DED7030AD8B4BD
:10118800E5D7010AD8B4EBD7070AD8A41200ECD7E0
:10119800CB0EF66E180EF76E000EF86E00EE73F0BA
:1011A80010EE08F00900F5CFEEFFE550E150FAE146
:1011B800C20EF66E180EF76E000EF86E00EE48F0CE
:1011C80010EE09F00900F5CFEEFFE550E150FAE125
:1011D80000EE29F01F0EEE6AE806FDE152905292E9
:1011E800000EF86E000109EF00F04750D8A40CD0AB
:1011F8004604D8A409D0010E096E4450AAEC06F0A2
:1012080044C033F0346A1CD04704D8A419D046042B
:10121800D8A416D0010E096E4450AAEC06F00A0EA6
:101228003302F3CF0EF0F4CF0FF03402F3500F2651
:1012380044500E24336E000E0F20346E76EC0CF002
:10124800472A1200000E096E000E0A6E000E0B6E81
:10125800000E0C6E01A008D00550092606500A227F
:1012680007500B2208500C22D89005360636073650
:101278000836D8900432033202320132015002108B
:1012880003100410D8A4E6D709C001F00AC002F080
:101298000BC003F00CC004F01200040E025CD8A0CE
:1012A80003D0030E026E016801C003F002C004F00F
:1012B800D89004320332D890043203320350BE6E01
:1012C80001C003F0D8900332010E0316033A034617
:1012D800BD500318DF0B0318BD6E01C003F0010EEB
:1012E8000316033ABD500318EF0B0318BD6E120026
:1012F800026E1BD0050E016EDE0EE82EFED7012E03
:10130800FCD71200530EE82EFED70000350EE82E4B
:10131800FED700001200080EE82EFED700001200CB
:10132800030EE82EFED7000012000250010AD8B4BE
:10133800E1D7030AD8B4E6D7010AD8B4ECD7070A2C
:10134800D8A41200EDD7000E666F000E656F6251CB
:101358006311D8B41CD0010E646F04D0D8906237E2
:101368006337642B63AFFAD7D89065376637625115
:10137800605D63516159D8A005D06251605F6351C7
:10138800615B6581D89063336233642FEDD765C0A4
:1013980060F066C061F01200000E066E000E056E69
:1013A80003500410D8B41CD0010E076E04D0D89096
:1013B80003360436072A04AEFAD7D890053606361F
:1013C8000350015C04500258D8A005D00350015EB8
:1013D8000450025A0580D89004320332072EEDD704
:1013E80005C001F006C002F01200000E6A6F000E80
:1013F800696F11D069516525676F6A516621686FF9
:1014080067C0F6FF68C0F7FF0800F550BCEC0BF0AA
:101418000001694B6A2B69516525676F6A5166211E
:10142800686F67C0F6FF68C0F7FF0800F55000094D
:10143800D8B41200DFD70001636F040E4818D8A48F
:1014480019D063C062F0F00E000162178C500F0BC8
:1014580062118C6E4DEC0CF0010E9DEC08F063C02F
:1014680062F00001623BF00E62178C500F0B6211A4
:101478008C6E1200080E4818D8A4120063C08CFFA6
:101488001200000E0B6E000E0A6E10D00A500624D1
:10149800086E0B500720096E08C0F6FF09C0F7FF59
:1014A8000800F550F7EC0BF00A4A0B2A0A500624FC
:1014B800086E0B500720096E08C0F6FF09C0F7FF39
:1014C8000800F5500009D8B41200E0D7046E040EE5
:1014D8004818D8A417D004C003F0F00E03168C5097
:1014E8000F0B03108C6E54EC0CF0010E7CEC09F021
:1014F80004C003F0033AF00E03168C500F0B0310D0
:101508008C6E1200080E4818D8A4120004C08CFF74
:1015180012000A500B10D8B418D0010E0C6E04D06B
:10152800D8900A360B360C2A0BAEFAD70A50085C4C
:101538000B500958D8A004D00A50085E0B50095A1D
:10154800D8900B320A320C2EF1D708C008F009C027
:1015580009F01200010E516E000E306E000E2F6E53
:10156800000E386E000E376E456A000E3A6E000E99
:10157800396E000E366E000E356E476A000E346EF8
:10158800000E336E446A3D6A899C3C6A3B6A1200CD
:10159800656F0001676B6451D8B415D0010E666F92
:1015A80003D0D8906437662B64AFFBD7D8906737E1
:1015B8006451655DD8A003D06451655F6781D89098
:1015C8006433662FF3D767511200066E086A055018
:1015D800D8B415D0010E076E03D0D8900536072A67
:1015E80005AEFBD7D89008360550065CD8A003D0C6
:1015F8000550065E0880D8900532072EF3D70850AC
:1016080012000001656F899800016505D8A403D010
:1016180002EC0CF012006551FE0B020AD8A403D0AC
:1016280072EC0CF0120065511FEC0AF04DEC0CF056
:10163800040E9DEC08F01200066E89980604D8A4E2
:1016480003D020EC0CF012000650FE0B020AD8A4BE
:1016580003D07EEC0CF0120006506AEC0AF054EC51
:101668000CF0040E7CEC09F012004604D8A4120019
:101678007AEC0CF0000E346E000E336E476AC70E1B
:10168800ECEC0BF0010EF7EC0BF0010EF7EC0BF0A5
:10169800C70EECEC0BF01200616F080E0001626FD0
:1016A800636BD89061356335636FD890613760514B
:1016B800635DD8A002D06051635F622FF2D7635197
:1016C80012000001616F61C0A9FF60C0A8FFA69E5B
:1016D800A69CA684F29E550EA76EAA0EA76EA68299
:1016E800F28EA6B2FED7A6941200026E080E036E02
:1016F800046AD89002340434046ED890023601503B
:10170800045CD8A002D00150045E032EF2D7045026
:101718001200026E02C0A9FF01C0A8FFA69EA69CE7
:10172800A684F29E550EA76EAA0EA76EA682F28E0A
:10173800A6B2FED7A69412000001606F040E000145
:101748006019D8B404D0080E6019D8A4120060C07B
:1017580048F01200036E0344E846FC0BC26EC280D8
:10176800C282C2B2FED7C3CF01F0C4CF02F01200CA
:101778000001646F8988000164511FEC0AF04DEC88
:101788000CF0040E9DEC08F012000001646F8998BB
:10179800000164511FEC0AF04DEC0CF0040E9DECB6
:1017A80008F0120062C060F0000E65EC0BF064C037
:1017B80060F0010E65EC0BF0120003C001F0000EA2
:1017C8008DEC0BF005C001F0010E8DEC0BF0120052
:1017D800056E899805506AEC0AF054EC0CF0040E7A
:1017E8007CEC09F01200056E898805506AEC0AF055
:1017F80054EC0CF0040E7CEC09F012008998010EF0
:101808001FEC0AF04DEC0CF0020E9DEC08F01200F3
:1018180089981C0E1FEC0AF04DEC0CF0040E9DECA0
:1018280008F01200010E3D6E000E026E000E016EF1
:1018380051EC09F0898C12008998010E6AEC0AF0C3
:1018480054EC0CF0020E7CEC09F01200010E45EC91
:101858000CF00001636F6351616F626B1200000E40
:1018680045EC0CF00001636F6351616F626B12000D
:101878003D6A000E026E000E016E51EC09F0899C63
:101888001200606F60C0A9FFA69EA69CA680A85003
:101898001200898A030EE82EFED70000899A1200EA
:1018A800898A030EE82EFED70000899A1200016E7D
:1018B800ACA2FED701C0ADFF120008040E1F0E1F18
:0B18C8000E0400000000000000001FE4
:1018D4000F0E05EC0BF012000C0E05EC0BF01200D1
:1018E400800EC9EC0BF012000C0E20EC0BF0120071
:1018F4000F0E20EC0BF01200800EECEC0BF012003B
:061904003D6A899C1200FF
:107E6C000001000A006400E80310274C61206469DB
:107E7C007374616E636961206D656469646120650A
:107E8C00733A20256420636D0D0A0056616C6F7285
:107E9C002064652050574D3A20256425250D0A0095
:107EAC0046616C6C6120656E20656C2073656E7329
:107EBC006F720D0A0056616C6F722064656C204104
:107ECC0044433A25640D0A005069657A6173206158
:107EDC0020636F6E7461723A004375656E74612035
:107EEC0043756D706C69646100436F6E74696E7577
:107EFC006172206465736465002020204269656EA0
:107F0C0076656E69646F200020202050726573695D
:107F1C006F6E65204F4B0056616C6F72206D696EF1
:107F2C003A2030310056616C6F72206D61783A20C6
:107F3C00353900202020454D455247454E43494197
:107F4C00002020202020214572726F7221002020F9
:107F5C00202020454E4552474941002020205041C9
:107F6C0052414441204445002020202046414C4CA5
:107F7C0041204445002020202052455345542044A4
:107F8C00450020202020205553554152494F0020B8
:107F9C0020206375656E74613A200046616C7461D3
:107FAC006E7465733A200053656C656363696F6E1C
:107FBC00653A00313D5349202020323D4E4F002080
:107FCC002020205573756172696F004F626A657469
:107FDC0069766F3A20007265696E696369616461E4
:107FEC000072657374617572616461004375656ECE
:047FFC0074610000AC
:020000040020DA
:08000000FFFFFFFFFFFFFFFF00
:020000040030CA
:0E00000000081F1EFF8381FF0FC00FE00F409E
:00000001FF
