:0400000007EF00F016
:100008004082A1ED03F0ECEF09F049EC0BF03C6AFB
:10001800386A400ED36E0E0EC16E010EC26E880E87
:10002800C06E966A070E8D6E956A2FC08CFF9292ED
:1000380089929294899492968996929894948B94A2
:1000480094908B909482949C948E240EAC6E900E17
:10005800AB6E080EB86E190EAF6E9482929A898AAA
:100068001CEC0CF023EC0CF0010ED56E0B0ED76EC9
:10007800DC0ED66EF294F28AD58EB10ECD6E0B0ED2
:10008800CF6EDC0ECE6E9E909D80CD80F00E936E6E
:100098008A6AF19E210E0001756F760EE82EFED752
:1000A800752FFCD70000F290F286F28CF28E9D8AB2
:1000B8008986D0B2B2D0D082000E216E000E206E9A
:1000C80015EC0CF0336E3C0E336077D097EC07F0EC
:1000D800EFEC0BF0220E0001606F7F0E616F12ECE7
:1000E8000AF0C00ECEEC0BF0F40E0001606F7F0E2C
:1000F800616F12EC0AF03A6A3A04D8B404D0020EDE
:100108003A18D8A4F9D73A04D8A44AD033C031F061
:10011800326A31C020F032C021F0000E236E0A0E80
:10012800226E99EC09F020C02DF021C02EF031C0CC
:1001380063F032C064F0000E666F0A0E656FA3ECC0
:100148000AF063C02FF064C030F02FC08CFF2D5030
:100158002E10D8A402D0020E1AD02D042E10D8A426
:1001680002D0030E14D0020E2D182E10D8A402D0DF
:10017800010E0DD0030E2D182E10D8A402D0050E96
:1001880006D0040E2D182E10D8A403D0040E8D6EA0
:1001980068D0050E2D182E10D8A463D08D6A61D0B2
:1001A800000E326E000E316E000E216E000E206EB3
:1001B800000E226E87EC0BF054D097EC07F0000E7F
:1001C800326E000E316E000E216E000E206E000E93
:1001D800226E87EC0BF0EFEC0BF04DEC0CF00F0EF1
:1001E8000001606F7F0E616F12EC0AF0C00ECEEC5A
:1001F8000BF0FB0E0001606F7E0E616F12EC0AF0CF
:10020800030E0001766F8A0E756F550EE82EFED725
:10021800752FFCD7762FFAD723D097EC07F0EFECA1
:100228000BF04DEC0CF0B70E0001606F7F0E616FA4
:1002380012EC0AF0C00ECEEC0BF0C40E0001606F99
:100248007F0E616F12EC0AF0020E0001766F450E08
:10025800756FA90EE82EFED7752FFCD7762FFAD723
:1002680000D089963704D8A49AD0376A89B202D0C8
:10027800898201D0899245EC0CF03450D8A44AD038
:10028800000EA9EC0BF020C029F021C02AF029C0EB
:1002980075F02AC076F00001D89076337533D8907F
:1002A800763375337551BE6ED8902A30766F293003
:1002B800756F7531D8A002D0BD8A01D0BD9A29A02A
:1002C80002D0BD8801D0BD9829C060F02AC061F075
:1002D8000001626B636B640E646F000E656F000E45
:1002E800666F000E676F18EC09F060C068F061C0B7
:1002F80069F062C06AF063C06BF0FF0E6C6F030EAA
:100308006D6F000E6E6F000E6F6F39EC08F068515C
:10031800356E43D035500001606F616B626B636B63
:10032800FF0E646F030E656F000E666F000E676F39
:1003380018EC09F060C068F061C069F062C06AF04A
:1003480063C06BF0640E6C6F000E6D6F000E6E6F05
:10035800000E6F6F39EC08F068C077F069C078F06C
:1003680077C075F078C076F0D89076337533D8902A
:10037800763375337551BE6ED8907831766F773194
:10038800756F7531D8A002D0BD8A01D0BD9A000121
:1003980077A102D0BD8801D0BD98010E366E360413
:1003A800D8A415D0366AE50E0001676F7E0E686F17
:1003B80035C069F06A6BA5EC05F0CB0E676F7E0E51
:1003C800686F25C069F026C06AF0A5EC05F03150C9
:1003D8003210D8B4AEEC06F04DEC0CF0EFEC0BF0AC
:1003E800D10E0001606F7F0E616F12EC0AF0020EF1
:1003F800636F31502B5C34EC06F0C00ECEEC0BF082
:10040800E90E0001606F7F0E616F12EC0AF0020EB8
:10041800636F2B5034EC06F0010E3B6E86D1370427
:10042800D8A49AD0376A89B202D0898201D0899239
:1004380045EC0CF03450D8A44AD0000EA9EC0BF0CF
:1004480020C029F021C02AF029C075F02AC076F012
:100458000001D89076337533D8907633753375515B
:10046800BE6ED8902A30766F2930756F7531D8A056
:1004780002D0BD8A01D0BD9A29A002D0BD8801D082
:10048800BD9829C060F02AC061F00001626B636BFF
:10049800640E646F000E656F000E666F000E676F66
:1004A80018EC09F060C068F061C069F062C06AF0D9
:1004B80063C06BF0FF0E6C6F030E6D6F000E6E6FF6
:1004C800000E6F6F39EC08F06851356E43D0355027
:1004D8000001606F616B626B636BFF0E646F030EEC
:1004E800656F000E666F000E676F18EC09F060C04C
:1004F80068F061C069F062C06AF063C06BF0640EB6
:100508006C6F000E6D6F000E6E6F000E6F6F39EC22
:1005180008F068C079F069C07AF079C075F07AC0DF
:1005280076F0D89076337533D89076337533755125
:10053800BE6ED8907A31766F7931756F7531D8A0E3
:1005480002D0BD8A01D0BD9A000179A102D0BD8830
:1005580001D0BD98010E366E3604D8A415D0366A7F
:10056800E50E0001676F7E0E686F35C069F06A6B33
:10057800A5EC05F0CB0E676F7E0E686F25C069F09D
:1005880026C06AF0A5EC05F02B50311836E12C5046
:100598003218D8A432D08984020E0001766F450E35
:1005A800756FA90EE82EFED7752FFCD7762FFAD7D0
:1005B80000D08994EFEC0BF0450E0001606F7F0EC0
:1005C800616F12EC0AF0C00ECEEC0BF0640E000165
:1005D800606F7F0E616F12EC0AF03B6A000E216EAD
:1005E800000E206E000E226E87EC0BF03A6A2A0E7F
:1005F8003A18D8A4FCD749EC0BF026BE86D0265072
:1006080004E1050E255CD8A080D026BE06D0265071
:100618007CE1090E255CD8B078D0396A3E50D8A460
:1006280084D0010E3E6E2F4A302A314A322A000EFB
:10063800216E000E206E31C022F087EC0BF00A0EFE
:100648002F183010D8A425D08984620E0001756F48
:10065800650EE82EFED7752FFCD700D08994000EC2
:10066800306E000E2F6E2D4A2E2A060E2D182E10D3
:10067800D8A40FD08984620E0001756F650EE82E2C
:10068800FED7752FFCD700D08994000E2E6E000E71
:100698002D6E2D502E10D8A402D0020E1AD02D0483
:1006A8002E10D8A402D0030E14D0020E2D182E102E
:1006B800D8A402D0010E0DD0030E2D182E10D8A4E8
:1006C80002D0050E06D0040E2D182E10D8A403D083
:1006D800040E8D6E05D0050E2D182E10D8B48D6A17
:1006E8008B0ECEEC0BF0020E0001636F31502B5CC9
:1006F80034EC06F02FC08CFFA30E0001756F550E69
:10070800E82EFED7752FFCD710D026BE06D026506F
:100718000BE10B0E255CD8B007D026BE05D02650BD
:1007280004E1030E255CD8A03E6A3B04D8B477D612
:10073800020E8D6E2FC08CFF95D50600F3CF14F0F6
:10074800F4CF15F0F6CF16F0F7CF17F0F8CF18F072
:10075800F5CF19F09EAA9ED0AECF38F05A0E3818B1
:10076800D8B404D07A0E3818D8A404D0010E346E48
:10077800356A45D0580E3818D8B404D0780E3818D1
:10078800D8A404D0010E346E140E2FD0430E38189E
:10079800D8B404D0630E3818D8A404D0010E346E2F
:1007A800280E23D0560E3818D8B404D0760E381830
:1007B800D8A404D0010E346E3C0E17D0420E38185F
:1007C800D8B404D0620E3818D8A404D0010E346E00
:1007D800500E0BD04E0E3818D8B404D06E0E381800
:1007E800D8A405D0010E346E640E356E08D04D0EB7
:1007F8003818D8B403D06D0E3818D8B4346A500EEF
:100808003818D8B404D0700E3818D8A417D0060EEB
:100818008D6E03EC0CF055EC0CF0AA0E066E7F0EF4
:10082800076E38EC0AF0C00ED9EC0BF08F0E066E8E
:100838007F0E076E38EC0AF0BD6AFFD73B04D8A4D8
:1008480029D0720E3818D8B404D0520E3818D8A44B
:1008580021D0000E306E000E2F6E000E326E000E8C
:10086800316E000E2E6E000E2D6E020E8D6E8B0EEA
:10087800D9EC0BF0020E096E31502B5C24EC07F01A
:100888002FC08CFF000E026E000E016E000E036E6C
:1008980098EC0BF0A1A03BD0BAA004D0B36AB26A1E
:1008A800040E33D0BC50106EBB501E6E10C01FF02B
:1008B8001E50106E1F50116E126A136A020ED890E5
:1008C8001036113612361336E82EF9D710C01AF042
:1008D80011C01BF012C01CF013C01DF01AC001F0AB
:1008E8001BC002F01CC003F01DC004F03A0E056ED8
:1008F800000E066E000E076E000E086E7AEC08F009
:1009080001C025F002C026F0050EBA6EA190F2A42F
:1009180007D00B0ED76EDC0ED66EF294010E376E32
:100928009EA014D0850ECF6EEE0ECE6E9E90392A04
:100938000A0E3918D8B48996130E396407D0BD6ADF
:10094800030031EC0CF0396AF290CD80F2A0EBD0C4
:10095800F00E8118D8B4DFD0396AFE0E8A6E81B8DD
:1009680005D0010E3A6EEBEC08F0D3D081BA02D074
:10097800020EF8D781BC02D0030EF4D781BE03D093
:100988002A0E3A6EC6D0FD0E8A6E81B802D0040EC9
:10099800E9D781BA02D0050EE5D781BC02D0060E90
:1009A800E1D781BE17D0060E8D6E03EC0CF055EC26
:1009B8000CF0AA0E066E7F0E076E38EC0AF0C00E19
:1009C800D9EC0BF08F0E066E7F0E076E38EC0AF02E
:1009D800BD6AFFD7FB0E8A6E81B802D0070EC2D758
:1009E80081BA02D0080EBED781BC02D0090EBAD790
:1009F80081BE03D032EC0BF08CD0F70E8A6E81B832
:100A080025D0000E306E000E2F6E000E326E000ED6
:100A1800316E000E2E6E000E2D6E020E8D6E3B0492
:100A2800D8A477D08B0ED9EC0BF0020E096E31509A
:100A38002B5C24EC07F02FC08CFF000E026E000E1A
:100A4800016E000E036E98EC0BF063D081BA02D0F1
:100A58003A6A89D781BC55D032EC0BF02BC031F003
:100A68002CC032F02BC001F02CC002F0000E046E36
:100A78000A0E036EC3EC09F001C02DF002C02EF07F
:100A8800F60E106EFF0E116E10502D02F3CF12F0FD
:100A9800F4CF13F02E02F350132611502D02F35009
:100AA80013262B5012242F6E2C501320306E2D50ED
:100AB8002E10D8A402D0020E1AD02D042E10D8A4BD
:100AC80002D0030E14D0020E2D182E10D8A402D076
:100AD800010E0DD0030E2D182E10D8A402D0050E2D
:100AE80006D0040E2D182E10D8A403D0040E8D6E37
:100AF80005D0050E2D182E10D8B48D6A2FC08CFF86
:100B080008D081BE06D089B602D0898601D08996E0
:100B1800CD80F00E8A6E620E106E660EE82EFED73D
:100B2800102EFCD7F29019C0F5FF18C0F8FF17C0B7
:100B3800F7FF16C0F6FF15C0F4FF14C0F3FF40928C
:100B48001100690E6C6F7ED0250E7119D8B404D0CF
:100B580071513FEC0CF076D06D6B04D071513FECC5
:100B68000CF070D067C0F6FF68C0F7FF674B682BC2
:100B78000800F5CF71F07151000AD8B41200640A68
:100B8800D8B403D00D0AD8A4E9D76C51D96EDA6A63
:100B9800DECF6FF0DDCF70F0020E6C2770AF06D09D
:100BA800030E6D136F6D701FD8B0702B010E716F2F
:100BB8007151020DC10EF324F66E7E0EF420F76E0D
:100BC8000900F5506F5D0900F5507059D8A005D09F
:100BD800712B050E7119D8A4EBD76DC06BF0030EFD
:100BE8006B17D8B403D02D0E3FEC0CF071C06EF02B
:100BF80024D06E51020DC10EF324F66E7E0EF42041
:100C0800F76E0900F5CF22F00A00F5CF23F06FC088
:100C180020F070C021F099EC09F020C063F021C0E9
:100C280064F0000E666F0A0E656FA3EC0AF063515C
:100C3800300F716F71513FEC0CF000016E076E2997
:100C4800D8A4D7D767C0F6FF68C0F7FF0001674B85
:100C5800682B0800F5CF71F07151D8B4120074D721
:100C6800676F89886BD00A0E206E67515FEC0BF0B6
:100C78000001666F6651300F5DEC0AF02AEC0CF04B
:100C8800040E43EC09F012000A0E246E640E206E66
:100C980067515FEC0BF0C4EC0AF0656F0A0E206E2A
:100CA80067515FEC0BF00001666F6551300F5DEC2A
:100CB8000AF02AEC0CF0040E43EC09F0000166512E
:100CC800300F5DEC0AF02AEC0CF0040E43EC09F04E
:100CD8001200640E246E6751C4EC0AF0646F0A0EA9
:100CE800246E640E206E67515FEC0BF0C4EC0AF0C2
:100CF800656F0A0E206E67515FEC0BF00001666F9E
:100D08006451300F5DEC0AF02AEC0CF0040E43EC51
:100D180009F000016551300F5DEC0AF02AEC0CF087
:100D2800040E43EC09F000016651300F5DEC0AF047
:100D38002AEC0CF0040E43EC09F012000001635198
:100D4800010AD8B490D7030AD8B49ED7010AD8A408
:100D58001200BFD77B0E0001606F010E616FBBEC04
:100D680008F03D6AEFEC0BF0340E0001606F7F0E67
:100D7800616F12EC0AF0C70ECEEC0BF0010EC3EC5B
:100D88000BF0010EC3EC0BF0C70ECEEC0BF049ECE8
:100D98000CF0010E3C6E2A0E3A18D8A4FCD72C5041
:100DA80008E13C0E2B5CD8B004D02B502C10D8A4F2
:100DB80041D03C6A3A6A000E2C6E000E2B6EEFECA6
:100DC8000BF04DEC0CF09D0E0001606F7F0E616F13
:100DD80012EC0AF0020E0001676F450E666FA90E4D
:100DE800E82EFED7662FFCD7672FFAD700D0EFEC96
:100DF8000BF0810E0001606F7F0E616F12EC0AF03C
:100E0800C00ECEEC0BF0730E0001606F7F0E616FA9
:100E180012EC0AF0030E0001676F8A0E666F550E1A
:100E2800E82EFED7662FFCD7672FFAD700D0EFEC55
:100E38000BF090D73C6A300E3D6EEFEC0BF01200D1
:100E48000D6E898865D00A0E016E0D5073EC0BF09B
:100E58000C6E0C50300F80EC0AF038EC0CF0040EDD
:100E68006EEC09F012000A0E056E640E016E0D504C
:100E780073EC0BF0E2EC0AF00B6E0A0E016E0D50EB
:100E880073EC0BF00C6E0B50300F80EC0AF038EC62
:100E98000CF0040E6EEC09F00C50300F80EC0AF0E8
:100EA80038EC0CF0040E6EEC09F01200640E056EBE
:100EB8000D50E2EC0AF00A6E0A0E056E640E016E21
:100EC8000D5073EC0BF0E2EC0AF00B6E0A0E016E9B
:100ED8000D5073EC0BF00C6E0A50300F80EC0AF0DA
:100EE80038EC0CF0040E6EEC09F00B50300F80EC6F
:100EF8000AF038EC0CF0040E6EEC09F00C50300FD0
:100F080080EC0AF038EC0CF0040E6EEC09F01200DC
:100F18000950010AD8B497D7030AD8B4A4D7010A4C
:100F2800D8A41200C3D7040EB7EC0BF0EBEC07F013
:100F38004DEC0CF0830E0001606F000E616FBBEC8E
:100F480008F0000EC3EC0BF0000EC3EC0BF0550ECE
:100F58000001606F7F0E616F12EC0AF0C00ECEECDC
:100F68000BF0000EC3EC0BF0000EC3EC0BF0DD0E23
:100F78000001606F7F0E616F12EC0AF0060E00012F
:100F8800676F540E666F9D0EE82EFED7662FFCD74E
:100F9800672FFAD7000E0001696F000E686FF9EC31
:100FA8000BF0210E0001666F760EE82EFED7662F35
:100FB800FCD700000001684B692B69BFF0D7695165
:100FC80005E1120E685DD8B01200E9D712008998C1
:100FD800040E3F18D8A404D08C500F0B300901D050
:100FE8003F0E8C6E2AEC0CF0010E43EC09F0040E57
:100FF8003F18D8A404D08C500F0B300901D03F0EF5
:101008008C6E2AEC0CF0030E43EC09F0040E3F182A
:10101800D8A404D08C500F0B300901D03F0E8C6E31
:101028002AEC0CF0040E43EC09F0040E3F18D8A487
:1010380011D08C500F0B20098C6E2AEC0CF0040E8A
:1010480043EC09F02F0E5DEC0AF02AEC0CF0040ECC
:1010580043EC09F0EFEC0BF00F0E5DEC0AF02AEC14
:101068000CF0040E43EC09F01200000E706F000E35
:10107800716F000E726F000E736F6C516D116E11EF
:101088006F11D8B42AD0010E746F06D0D8906C377F
:101098006D376E376F37742B6FAFF8D7D8907037BE
:1010A8007137723773376C51685D6D5169596E517C
:1010B8006A596F516B59D8A009D06C51685F6D514E
:1010C800695B6E516A5B6F516B5B7081D8906F334F
:1010D8006E336D336C33742FE1D770C068F071C014
:1010E80069F072C06AF073C06BF01200000E096EEE
:1010F800000E0A6E000E0B6E000E0C6E05500610E8
:1011080007100810D8B42AD0010E0D6E06D0D8905A
:1011180005360636073608360D2A08AEF8D7D890B1
:1011280009360A360B360C360550015C0650025853
:101138000750035808500458D8A009D00550015E3C
:101148000650025A0750035A0850045A0980D8908A
:1011580008320732063205320D2EE1D709C001F0F8
:101168000AC002F00BC003F00CC004F0120089980A
:101178006151080DF35040095DEC0AF02AEC0CF0BF
:10118800040E43EC09F08988020E43EC09F0000EC6
:101198000001636F000E626F60516225D96EDA6AD2
:1011A800DF505DEC0AF02AEC0CF0040E43EC09F079
:1011B8000001624B632B63BFEFD7635104E1080E54
:1011C800625DD8A0E9D7800ECEEC0BF012003D503E
:1011D800D8A40CD03C04D8A409D0010E096E3A500A
:1011E80024EC07F03AC02BF02C6A1CD03D04D8A49C
:1011F80019D03C04D8A416D0010E096E3A5024EC3C
:1012080007F00A0E2B02F3CF0EF0F4CF0FF02C02EA
:10121800F3500F263A500E242B6E000E0F202C6E22
:1012280055EC0CF03D2A1200000E206E000E216EC7
:10123800000E226E000E236E60A108D06451202695
:10124800655121226651222267512322D8906437A2
:10125800653766376737D8906333623361336033F5
:101268006051611162116311D8A4E6D720C060F003
:1012780021C061F022C062F023C063F01200216E29
:101288001BD0050E206EDE0EE82EFED7202EFCD7D2
:101298001200530EE82EFED70000350EE82EFED7BA
:1012A80000001200080EE82EFED700001200030E00
:1012B800E82EFED7000012002150010AD8B4E1D769
:1012C800030AD8B4E6D7010AD8B4ECD7070AD8A4D9
:1012D8001200EDD7026E1BD0050E016EDE0EE82E51
:1012E800FED7012EFCD71200530EE82EFED70000C1
:1012F800350EE82EFED700001200080EE82EFED7A5
:1013080000001200030EE82EFED700001200025063
:10131800010AD8B4E1D7030AD8B4E6D7010AD8B489
:10132800ECD7070AD8A41200EDD7000E0001626FAF
:10133800000E616F22502310D8B41CD0010E606FCC
:1013480004D0D89022362336602B23AEFAD7D89013
:10135800613762372250205C23502158D8A005D02D
:101368002250205E2350215A6181D89023322232A4
:10137800602FEDD761C020F062C021F01200000E8E
:10138800066E000E056E03500410D8B41CD0010E72
:10139800076E04D0D89003360436072A04AEFAD76D
:1013A800D890053606360350015C04500258D8A080
:1013B80005D00350015E0450025A0580D8900432CB
:1013C8000332072EEDD705C001F006C002F0120067
:1013D8001A0EF66E180EF76E000EF86E00EE7BF021
:1013E80010EE10F00900F5CFEEFFE550E150FAE1FC
:1013F800C20EF66E180EF76E000EF86E0900F5CFE5
:101408003FF000EE25F0190EEE6AE806FDE1409087
:101418004092000EF86E000109EF00F0000E656FB3
:10142800000E646F11D064516025626F65516121AF
:10143800636F62C0F6FF63C0F7FF0800F550C3ECA6
:101448000BF00001644B652B64516025626F655198
:101458006121636F62C0F6FF63C0F7FF0800F550B3
:101468000009D8B41200DFD7000E0B6E000E0A6E0A
:1014780010D00A500624086E0B500720096E08C0C9
:10148800F6FF09C0F7FF0800F550E4EC0BF00A4A34
:101498000B2A0A500624086E0B500720096E08C054
:1014A800F6FF09C0F7FF0800F5500009D8B412008C
:1014B800E0D7236E040E3F18D8A417D023C022F01B
:1014C800F00E22168C500F0B22108C6E2AEC0CF0AA
:1014D800010E43EC09F023C022F0223AF00E221646
:1014E8008C500F0B22108C6E1200080E3F18D8A4D7
:1014F800120023C08CFF1200046E040E3F18D8A4FB
:1015080017D004C003F0F00E03168C500F0B031015
:101518008C6E38EC0CF0010E6EEC09F004C003F090
:10152800033AF00E03168C500F0B03108C6E12004A
:10153800080E3F18D8A4120004C08CFF1200655191
:101548006611D8B418D0010E246E04D0D89065372F
:101558006637242A66AFFAD76551635D66516459C8
:10156800D8A004D06551635F6651645BD890663338
:101578006533242EF1D763C063F064C064F01200B1
:101588000001606F0001626B2450D8B415D0010EC1
:10159800616F03D0D8902436612B24AEFBD7D89046
:1015A80062372450605DD8A003D02450605F628108
:1015B800D8902432612FF3D762511200066E086A60
:1015C8000550D8B415D0010E076E03D0D890053653
:1015D800072A05AEFBD7D89008360550065CD8A078
:1015E80003D00550065E0880D8900532072EF3D741
:1015F800085012000001606F899800016005D8A4A6
:1016080003D0EFEC0BF012006051FE0B020AD8A4D5
:1016180003D051EC0CF0120060515DEC0AF02AEC9A
:101628000CF0040E43EC09F01200066E89980604CB
:10163800D8A403D003EC0CF012000650FE0B020AEB
:10164800D8A403D05DEC0CF01200065080EC0AF030
:1016580038EC0CF0040E6EEC09F012003C04D8A42F
:10166800120059EC0CF0000E2C6E000E2B6E3D6A29
:10167800C70ED9EC0BF0010EE4EC0BF0010EE4EC14
:101688000BF0C70ED9EC0BF01200010E3E6E000EE7
:10169800306E000E2F6E3B6A000E326E000E316EF9
:1016A800000E2E6E000E2D6E3D6A000E2C6E000E82
:1016B8002B6E3A6A1200216E080E226E236AD890A9
:1016C80021342334236ED89021362050235CD8A0AF
:1016D80002D02050235E222EF2D723501200026E31
:1016E800080E036E046AD89002340434046ED8904D
:1016F80002360150045CD8A002D00150045E032ECB
:10170800F2D70450120020C0A9FF22C0A8FF020E81
:10171800A66EF29E550EA76EAA0EA76EA682A6B258
:10172800FED7F28EA694120001C0A9FF03C0A8FF3D
:10173800020EA66EF29E550EA76EAA0EA76EA68280
:10174800A6B2FED7F28EA6941200226E2244E84674
:10175800FC0BC26EC280C282C2B2FED7C3CF20F0D9
:10176800C4CF21F01200206E040E2018D8B404D083
:10177800080E2018D8A4120020C03FF01200246ED2
:10178800898824505DEC0AF02AEC0CF0040E43EC36
:1017980009F01200246E899824505DEC0AF02AECB6
:1017A8000CF0040E43EC09F01200056E8998055000
:1017B80080EC0AF038EC0CF0040E6EEC09F0120024
:1017C800056E8988055080EC0AF038EC0CF0040EA0
:1017D8006EEC09F012008998010E5DEC0AF02AEC13
:1017E8000CF0020E43EC09F0120089981C0E5DEC17
:1017F8000AF02AEC0CF0040E43EC09F01200899868
:10180800010E80EC0AF038EC0CF0020E6EEC09F0D8
:101818001200000000000000001F0A1F1F1F0E0416
:10182800000020C0A9FFA69EA69CA680A850120072
:10183800F90ECB6E0C0EBD6E040ECA6E1200890E28
:10184800B16E050EBA6EA080A1901200898A030EAF
:10185800E82EFED70000899A1200F90ECB6E0C0E06
:10186800BD6E040ECA6E1200898A030EE82EFED7DA
:101878000000899A1200206EACA2FED720C0ADFFEE
:1018880012008B8000D08B9012000F0EFEEC0AF035
:1018980012000C0EFEEC0AF01200800ECEEC0BF0DB
:1018A80012000C0E19EC0BF012000F0E19EC0BF0D5
:0B18B8001200800ED9EC0BF0120008AB
:107EC0000001000A006400E80310270D0A446973EA
:107ED00074616E636961206F626A65746F3A202510
:107EE0006420636D000D0A56616C6F72206465201A
:107EF00050574D3A2025642025250020284545501F
:107F0000524F4D206E6F2076616C696461290020AC
:107F10004375656E7461207265696E696369616439
:107F2000610052656375706572617220636F6E7473
:107F3000656F3F005069657A6173206120636F6EE1
:107F40007461723A004375656E74612043756D709B
:107F50006C696461002020204269656E76656E69F7
:107F6000646F200020202050726573696F6E652059
:107F70004F4B0056616C6F72206D696E3A20303144
:107F80000056616C6F72206D61783A20353900209F
:107F90002020454D455247454E4349410020202071
:107FA0002020214572726F72210020202050415202
:107FB000414441204445002020202052455345544F
:107FC0002044450020202020205553554152494F40
:107FD0000046616C74616E7465733A200020202045
:107FE000205573756172696F004F626A65746976B6
:107FF0006F3A2000313A53692020323A4E6F000028
:020000040020DA
:08000000FFFFFFFFFFFFFFFF00
:020000040030CA
:0E00000000091F1EFF8381FF0FC00FE00F409D
:00000001FF
